{
  "contractName": "YogiFarm",
  "abi": [
    {
      "inputs": [
        {
          "internalType": "contract YCoinToken",
          "name": "_ycoinToken",
          "type": "address"
        },
        {
          "internalType": "contract YaiToken",
          "name": "_yaiToken",
          "type": "address"
        }
      ],
      "payable": false,
      "stateMutability": "nonpayable",
      "type": "constructor"
    },
    {
      "constant": true,
      "inputs": [],
      "name": "name",
      "outputs": [
        {
          "internalType": "string",
          "name": "",
          "type": "string"
        }
      ],
      "payable": false,
      "stateMutability": "view",
      "type": "function"
    },
    {
      "constant": true,
      "inputs": [],
      "name": "yaiToken",
      "outputs": [
        {
          "internalType": "contract YaiToken",
          "name": "",
          "type": "address"
        }
      ],
      "payable": false,
      "stateMutability": "view",
      "type": "function"
    },
    {
      "constant": true,
      "inputs": [],
      "name": "ycoinToken",
      "outputs": [
        {
          "internalType": "contract YCoinToken",
          "name": "",
          "type": "address"
        }
      ],
      "payable": false,
      "stateMutability": "view",
      "type": "function"
    }
  ],
  "bytecode": "0x60806040526040518060400160405280600f81526020017f59436f696e546f6b656e204661726d00000000000000000000000000000000008152506000908051906020019061004f929190610123565b5034801561005c57600080fd5b506040516104533803806104538339818101604052604081101561007f57600080fd5b81019080805190602001909291908051906020019092919050505080600160006101000a81548173ffffffffffffffffffffffffffffffffffffffff021916908373ffffffffffffffffffffffffffffffffffffffff16021790555081600260006101000a81548173ffffffffffffffffffffffffffffffffffffffff021916908373ffffffffffffffffffffffffffffffffffffffff16021790555050506101c8565b828054600181600116156101000203166002900490600052602060002090601f016020900481019282601f1061016457805160ff1916838001178555610192565b82800160010185558215610192579182015b82811115610191578251825591602001919060010190610176565b5b50905061019f91906101a3565b5090565b6101c591905b808211156101c15760008160009055506001016101a9565b5090565b90565b61027c806101d76000396000f3fe608060405234801561001057600080fd5b50600436106100415760003560e01c806301a008911461004657806306fdde0314610090578063735ec7dc14610113575b600080fd5b61004e61015d565b604051808273ffffffffffffffffffffffffffffffffffffffff1673ffffffffffffffffffffffffffffffffffffffff16815260200191505060405180910390f35b610098610183565b6040518080602001828103825283818151815260200191508051906020019080838360005b838110156100d85780820151818401526020810190506100bd565b50505050905090810190601f1680156101055780820380516001836020036101000a031916815260200191505b509250505060405180910390f35b61011b610221565b604051808273ffffffffffffffffffffffffffffffffffffffff1673ffffffffffffffffffffffffffffffffffffffff16815260200191505060405180910390f35b600160009054906101000a900473ffffffffffffffffffffffffffffffffffffffff1681565b60008054600181600116156101000203166002900480601f0160208091040260200160405190810160405280929190818152602001828054600181600116156101000203166002900480156102195780601f106101ee57610100808354040283529160200191610219565b820191906000526020600020905b8154815290600101906020018083116101fc57829003601f168201915b505050505081565b600260009054906101000a900473ffffffffffffffffffffffffffffffffffffffff168156fea265627a7a72315820a699a0ec7da19ae4e3a7c2ac61aa1a385dbd73b547d02c88e71824807fe93bf264736f6c63430005100032",
  "source": "pragma solidity >=0.4.8 <0.8.0;\r\n\r\n\r\nimport \"./YaiToken.sol\";\r\nimport \"./YCoinToken.sol\";\r\n\r\n/**\r\n * The YogiFarm contract does this and that...\r\n */\r\ncontract YogiFarm {\r\n\r\n\tstring public name = \"YCoinToken Farm\";\r\n\r\n\tYaiToken public yaiToken;\r\n\tYCoinToken public ycoinToken;\r\n\r\n\r\n  constructor(YCoinToken _ycoinToken, YaiToken _yaiToken) public {\r\n    \t\r\n    \tyaiToken = _yaiToken;\r\n    \tycoinToken = _ycoinToken;\r\n  }\r\n}\r\n\r\n\r\n",
  "sourcePath": "D:/PROJECTS/Blockchain/DeFi App/contracts/YogiFarm.sol",
  "compiler": {
    "name": "solc",
    "version": "0.5.16+commit.9c3226ce.Emscripten.clang"
  },
  "schemaVersion": "3.3.3",
  "updatedAt": "2020-12-23T18:26:17.437Z",
  "networkType": "ethereum",
  "devdoc": {
    "methods": {}
  },
  "userdoc": {
    "methods": {},
    "notice": "The YogiFarm contract does this and that..."
  }
}